{
  "contractName": "Fomo",
  "abi": [
    {
      "inputs": [],
      "stateMutability": "nonpayable",
      "type": "constructor"
    },
    {
      "inputs": [],
      "name": "end",
      "outputs": [
        {
          "internalType": "uint256",
          "name": "",
          "type": "uint256"
        }
      ],
      "stateMutability": "view",
      "type": "function",
      "constant": true
    },
    {
      "inputs": [
        {
          "internalType": "address",
          "name": "",
          "type": "address"
        }
      ],
      "name": "keyBalance",
      "outputs": [
        {
          "internalType": "uint256",
          "name": "",
          "type": "uint256"
        }
      ],
      "stateMutability": "view",
      "type": "function",
      "constant": true
    },
    {
      "inputs": [],
      "name": "keyPrice",
      "outputs": [
        {
          "internalType": "uint256",
          "name": "",
          "type": "uint256"
        }
      ],
      "stateMutability": "view",
      "type": "function",
      "constant": true
    },
    {
      "inputs": [],
      "name": "start",
      "outputs": [
        {
          "internalType": "uint256",
          "name": "",
          "type": "uint256"
        }
      ],
      "stateMutability": "view",
      "type": "function",
      "constant": true
    },
    {
      "inputs": [],
      "name": "totalKeys",
      "outputs": [
        {
          "internalType": "uint256",
          "name": "",
          "type": "uint256"
        }
      ],
      "stateMutability": "view",
      "type": "function",
      "constant": true
    },
    {
      "inputs": [],
      "name": "totalTime",
      "outputs": [
        {
          "internalType": "uint256",
          "name": "",
          "type": "uint256"
        }
      ],
      "stateMutability": "view",
      "type": "function",
      "constant": true
    },
    {
      "inputs": [],
      "name": "letTheGamesBegin",
      "outputs": [],
      "stateMutability": "nonpayable",
      "type": "function"
    },
    {
      "inputs": [],
      "name": "getBalance",
      "outputs": [
        {
          "internalType": "uint256",
          "name": "",
          "type": "uint256"
        }
      ],
      "stateMutability": "view",
      "type": "function",
      "constant": true
    },
    {
      "inputs": [],
      "name": "purchaseKeys",
      "outputs": [],
      "stateMutability": "payable",
      "type": "function",
      "payable": true
    },
    {
      "inputs": [],
      "name": "getKeyPrice",
      "outputs": [
        {
          "internalType": "uint256",
          "name": "",
          "type": "uint256"
        }
      ],
      "stateMutability": "view",
      "type": "function",
      "constant": true
    },
    {
      "inputs": [],
      "name": "getTimeLeft",
      "outputs": [
        {
          "internalType": "uint256",
          "name": "",
          "type": "uint256"
        }
      ],
      "stateMutability": "view",
      "type": "function",
      "constant": true
    },
    {
      "inputs": [
        {
          "internalType": "address payable",
          "name": "_to",
          "type": "address"
        },
        {
          "internalType": "uint256",
          "name": "_amount",
          "type": "uint256"
        }
      ],
      "name": "withdrawMoney",
      "outputs": [],
      "stateMutability": "nonpayable",
      "type": "function"
    },
    {
      "inputs": [
        {
          "internalType": "address payable",
          "name": "_to",
          "type": "address"
        }
      ],
      "name": "withdrawAllMoney",
      "outputs": [],
      "stateMutability": "nonpayable",
      "type": "function"
    }
  ],
  "bytecode": "0x608060405262015180600255600160045534801561001c57600080fd5b50336000806101000a81548173ffffffffffffffffffffffffffffffffffffffff021916908373ffffffffffffffffffffffffffffffffffffffff160217905550610ad28061006c6000396000f3fe6080604052600436106100c25760003560e01c80639953805f1161007f578063be9a655511610059578063be9a655514610225578063c7e284b814610250578063efbe1c1c1461027b578063f274c897146102a6576100c2565b80639953805f146101d95780639e1f3c80146101e3578063a440a190146101fa576100c2565b80630adec93c146100c757806310e56973146100f057806312065fe01461011b578063488bdabc1461014657806358533e0a1461017157806364954e141461019c575b600080fd5b3480156100d357600080fd5b506100ee60048036038101906100e991906106ff565b6102cf565b005b3480156100fc57600080fd5b506101056103a3565b6040516101129190610844565b60405180910390f35b34801561012757600080fd5b506101306103a9565b60405161013d9190610844565b60405180910390f35b34801561015257600080fd5b5061015b6103b1565b6040516101689190610844565b60405180910390f35b34801561017d57600080fd5b506101866103b7565b6040516101939190610844565b60405180910390f35b3480156101a857600080fd5b506101c360048036038101906101be91906106d2565b6103bd565b6040516101d09190610844565b60405180910390f35b6101e16103d5565b005b3480156101ef57600080fd5b506101f8610498565b005b34801561020657600080fd5b5061020f610545565b60405161021c9190610844565b60405180910390f35b34801561023157600080fd5b5061023a61054f565b6040516102479190610844565b60405180910390f35b34801561025c57600080fd5b50610265610555565b6040516102729190610844565b60405180910390f35b34801561028757600080fd5b5061029061056a565b60405161029d9190610844565b60405180910390f35b3480156102b257600080fd5b506102cd60048036038101906102c8919061072c565b610570565b005b6000600660003373ffffffffffffffffffffffffffffffffffffffff1673ffffffffffffffffffffffffffffffffffffffff1681526020019081526020016000205490506000600660003373ffffffffffffffffffffffffffffffffffffffff1673ffffffffffffffffffffffffffffffffffffffff168152602001908152602001600020819055508173ffffffffffffffffffffffffffffffffffffffff166108fc829081150290604051600060405180830381858888f1935050505015801561039e573d6000803e3d6000fd5b505050565b60045481565b600047905090565b60055481565b60025481565b60066020528060005260406000206000915090505481565b60045434101561041a576040517f08c379a0000000000000000000000000000000000000000000000000000000008152600401610411906107e4565b60405180910390fd5b6004543461042891906108c6565b600660003373ffffffffffffffffffffffffffffffffffffffff1673ffffffffffffffffffffffffffffffffffffffff16815260200190815260200160002060008282546104769190610870565b92505081905550346004600082825461048f9190610870565b92505081905550565b60008054906101000a900473ffffffffffffffffffffffffffffffffffffffff1673ffffffffffffffffffffffffffffffffffffffff163373ffffffffffffffffffffffffffffffffffffffff1614610526576040517f08c379a000000000000000000000000000000000000000000000000000000000815260040161051d90610804565b60405180910390fd5b4260018190555060015460025461053d9190610870565b600381905550565b6000600454905090565b60015481565b60004260035461056591906108f7565b905090565b60035481565b600660003373ffffffffffffffffffffffffffffffffffffffff1673ffffffffffffffffffffffffffffffffffffffff168152602001908152602001600020548111156105f2576040517f08c379a00000000000000000000000000000000000000000000000000000000081526004016105e990610824565b60405180910390fd5b80600660003373ffffffffffffffffffffffffffffffffffffffff1673ffffffffffffffffffffffffffffffffffffffff168152602001908152602001600020600082825461064191906108f7565b925050819055508173ffffffffffffffffffffffffffffffffffffffff166108fc829081150290604051600060405180830381858888f1935050505015801561068e573d6000803e3d6000fd5b505050565b6000813590506106a281610a57565b92915050565b6000813590506106b781610a6e565b92915050565b6000813590506106cc81610a85565b92915050565b6000602082840312156106e8576106e76109d7565b5b60006106f684828501610693565b91505092915050565b600060208284031215610715576107146109d7565b5b6000610723848285016106a8565b91505092915050565b60008060408385031215610743576107426109d7565b5b6000610751858286016106a8565b9250506020610762858286016106bd565b9150509250929050565b600061077960178361085f565b9150610784826109dc565b602082019050919050565b600061079c60178361085f565b91506107a782610a05565b602082019050919050565b60006107bf60108361085f565b91506107ca82610a2e565b602082019050919050565b6107de8161096f565b82525050565b600060208201905081810360008301526107fd8161076c565b9050919050565b6000602082019050818103600083015261081d8161078f565b9050919050565b6000602082019050818103600083015261083d816107b2565b9050919050565b600060208201905061085960008301846107d5565b92915050565b600082825260208201905092915050565b600061087b8261096f565b91506108868361096f565b9250827fffffffffffffffffffffffffffffffffffffffffffffffffffffffffffffffff038211156108bb576108ba610979565b5b828201905092915050565b60006108d18261096f565b91506108dc8361096f565b9250826108ec576108eb6109a8565b5b828204905092915050565b60006109028261096f565b915061090d8361096f565b9250828210156109205761091f610979565b5b828203905092915050565b60006109368261094f565b9050919050565b60006109488261094f565b9050919050565b600073ffffffffffffffffffffffffffffffffffffffff82169050919050565b6000819050919050565b7f4e487b7100000000000000000000000000000000000000000000000000000000600052601160045260246000fd5b7f4e487b7100000000000000000000000000000000000000000000000000000000600052601260045260246000fd5b600080fd5b7f6e6f7420656e6f75676820746f206275792061206b6579000000000000000000600082015250565b7f796f752063616e74207374617274207468652067616d65000000000000000000600082015250565b7f6e6f7420656e6f7567682066756e647300000000000000000000000000000000600082015250565b610a608161092b565b8114610a6b57600080fd5b50565b610a778161093d565b8114610a8257600080fd5b50565b610a8e8161096f565b8114610a9957600080fd5b5056fea2646970667358221220a3d95d273f0814fb7c9153a8f5b77c8b0af7ba3e2db1a9dd978691ab25482dcf64736f6c63430008050033",
  "immutableReferences": {},
  "source": "//SPDX-License-Identifier: MIT\n\npragma solidity ^0.8.4;\n\ncontract Fomo {\n    address owner;\n    uint public start;\n    uint public totalTime = 86400;\n    uint public end;\n    uint public keyPrice = 1 wei;\n    uint public totalKeys;\n    mapping(address => uint) public keyBalance;\n    \n    constructor() {\n        owner = msg.sender;\n    }\n    \n    function letTheGamesBegin() public {\n        require(msg.sender == owner, \"you cant start the game\");\n        start = block.timestamp;\n        end = totalTime + start;\n    }    \n    function getBalance() public view returns(uint) {\n        // retuns player's keyBalance\n        return address(this).balance;\n    }\n    function purchaseKeys() public payable {\n        require(msg.value >= keyPrice, \"not enough to buy a key\");\n        keyBalance[msg.sender] += msg.value/keyPrice;\n        keyPrice += msg.value;\n    }\n    function getKeyPrice() public view returns(uint) {\n        return keyPrice;\n    }\n    function getTimeLeft() public view returns(uint) {\n        return end - block.timestamp;\n    }\n    function withdrawMoney(address payable _to, uint _amount) public {\n        require(_amount <= keyBalance[msg.sender], \"not enough funds\");\n        keyBalance[msg.sender] -= _amount;\n        _to.transfer(_amount);\n    }\n    function withdrawAllMoney(address payable _to) public {\n        uint balanceToSend = keyBalance[msg.sender];\n        keyBalance[msg.sender] = 0;\n        _to.transfer(balanceToSend);\n    }\n}",
  "sourcePath": "/Users/austin/Desktop/dapps/FomoOE/contracts/Fomo.sol",
  "compiler": {
    "name": "solc",
    "version": "0.8.5+commit.a4f2e591.Emscripten.clang"
  },
  "schemaVersion": "3.4.2",
  "updatedAt": "2021-08-14T22:17:29.874Z",
  "networkType": "ethereum",
  "devdoc": {
    "kind": "dev",
    "methods": {},
    "version": 1
  },
  "userdoc": {
    "kind": "user",
    "methods": {},
    "version": 1
  }
}