{
  "contractName": "FomoOE",
  "abi": [
    {
      "inputs": [],
      "stateMutability": "nonpayable",
      "type": "constructor"
    },
    {
      "anonymous": false,
      "inputs": [
        {
          "indexed": false,
          "internalType": "uint256",
          "name": "_balanceReceived",
          "type": "uint256"
        }
      ],
      "name": "contractBalance",
      "type": "event"
    },
    {
      "anonymous": false,
      "inputs": [
        {
          "indexed": false,
          "internalType": "uint256",
          "name": "keyPrice",
          "type": "uint256"
        }
      ],
      "name": "currentKeyPrice",
      "type": "event"
    },
    {
      "anonymous": false,
      "inputs": [
        {
          "indexed": false,
          "internalType": "uint256",
          "name": "_userKeyBalance",
          "type": "uint256"
        },
        {
          "indexed": false,
          "internalType": "uint256",
          "name": "_totalKeys",
          "type": "uint256"
        },
        {
          "indexed": false,
          "internalType": "uint256",
          "name": "_keyPrice",
          "type": "uint256"
        },
        {
          "indexed": false,
          "internalType": "uint256",
          "name": "_divPool",
          "type": "uint256"
        },
        {
          "indexed": false,
          "internalType": "uint256",
          "name": "_jackpot",
          "type": "uint256"
        }
      ],
      "name": "keysPurchased",
      "type": "event"
    },
    {
      "inputs": [],
      "name": "balanceReceived",
      "outputs": [
        {
          "internalType": "uint256",
          "name": "",
          "type": "uint256"
        }
      ],
      "stateMutability": "view",
      "type": "function",
      "constant": true
    },
    {
      "inputs": [],
      "name": "divPool",
      "outputs": [
        {
          "internalType": "uint256",
          "name": "",
          "type": "uint256"
        }
      ],
      "stateMutability": "view",
      "type": "function",
      "constant": true
    },
    {
      "inputs": [
        {
          "internalType": "address",
          "name": "",
          "type": "address"
        }
      ],
      "name": "divTracker",
      "outputs": [
        {
          "internalType": "uint256",
          "name": "_keyBalance",
          "type": "uint256"
        },
        {
          "internalType": "uint256",
          "name": "_totalDivPoolAtWithdraw",
          "type": "uint256"
        },
        {
          "internalType": "uint256",
          "name": "_divBalance",
          "type": "uint256"
        }
      ],
      "stateMutability": "view",
      "type": "function",
      "constant": true
    },
    {
      "inputs": [],
      "name": "jackpot",
      "outputs": [
        {
          "internalType": "uint256",
          "name": "",
          "type": "uint256"
        }
      ],
      "stateMutability": "view",
      "type": "function",
      "constant": true
    },
    {
      "inputs": [],
      "name": "keyPrice",
      "outputs": [
        {
          "internalType": "uint256",
          "name": "",
          "type": "uint256"
        }
      ],
      "stateMutability": "view",
      "type": "function",
      "constant": true
    },
    {
      "inputs": [],
      "name": "totalKeys",
      "outputs": [
        {
          "internalType": "uint256",
          "name": "",
          "type": "uint256"
        }
      ],
      "stateMutability": "view",
      "type": "function",
      "constant": true
    },
    {
      "inputs": [],
      "name": "receiveMoney",
      "outputs": [],
      "stateMutability": "payable",
      "type": "function",
      "payable": true
    },
    {
      "inputs": [],
      "name": "getBalance",
      "outputs": [
        {
          "internalType": "uint256",
          "name": "",
          "type": "uint256"
        }
      ],
      "stateMutability": "view",
      "type": "function",
      "constant": true
    },
    {
      "inputs": [],
      "name": "withdrawMoney",
      "outputs": [],
      "stateMutability": "nonpayable",
      "type": "function"
    },
    {
      "inputs": [
        {
          "internalType": "address payable",
          "name": "_to",
          "type": "address"
        }
      ],
      "name": "withdrawMoneyTo",
      "outputs": [],
      "stateMutability": "nonpayable",
      "type": "function"
    },
    {
      "inputs": [
        {
          "internalType": "uint256",
          "name": "_amount",
          "type": "uint256"
        }
      ],
      "name": "purchaseKeys",
      "outputs": [],
      "stateMutability": "payable",
      "type": "function",
      "payable": true
    },
    {
      "inputs": [],
      "name": "getTotalKeyBalance",
      "outputs": [
        {
          "internalType": "uint256",
          "name": "",
          "type": "uint256"
        }
      ],
      "stateMutability": "view",
      "type": "function",
      "constant": true
    },
    {
      "inputs": [],
      "name": "getUserKeyBalance",
      "outputs": [
        {
          "internalType": "uint256",
          "name": "",
          "type": "uint256"
        }
      ],
      "stateMutability": "view",
      "type": "function",
      "constant": true
    },
    {
      "inputs": [],
      "name": "getKeyPrice",
      "outputs": [
        {
          "internalType": "uint256",
          "name": "",
          "type": "uint256"
        }
      ],
      "stateMutability": "view",
      "type": "function",
      "constant": true
    },
    {
      "inputs": [],
      "name": "withdrawDivvies",
      "outputs": [],
      "stateMutability": "nonpayable",
      "type": "function"
    },
    {
      "inputs": [],
      "name": "updateDivvies",
      "outputs": [
        {
          "internalType": "uint256",
          "name": "",
          "type": "uint256"
        }
      ],
      "stateMutability": "view",
      "type": "function",
      "constant": true
    }
  ],
  "bytecode": "0x6080604052606460025534801561001557600080fd5b50336000806101000a81548173ffffffffffffffffffffffffffffffffffffffff021916908373ffffffffffffffffffffffffffffffffffffffff160217905550610d2e806100656000396000f3fe6080604052600436106100f35760003560e01c806355fcbbff1161008a57806378c3171f1161005957806378c3171f146102d95780637c2be5dd146102f5578063a440a19014610320578063ac4460021461034b576100f3565b806355fcbbff1461023a57806368eb20f8146102795780636b31ee01146102a45780636d26ec18146102cf576100f3565b80631ebe585d116100c65780631ebe585d146101a2578063488bdabc146101b957806351679cc0146101e457806352a90c421461020f576100f3565b80630ff8d8a5146100f857806310e569731461012157806312065fe01461014c57806317c56f8414610177575b600080fd5b34801561010457600080fd5b5061011f600480360381019061011a9190610962565b610362565b005b34801561012d57600080fd5b506101366103b3565b6040516101439190610a0e565b60405180910390f35b34801561015857600080fd5b506101616103b9565b60405161016e9190610a0e565b60405180910390f35b34801561018357600080fd5b5061018c6103c1565b6040516101999190610a0e565b60405180910390f35b3480156101ae57600080fd5b506101b76103cb565b005b3480156101c557600080fd5b506101ce610561565b6040516101db9190610a0e565b60405180910390f35b3480156101f057600080fd5b506101f9610567565b6040516102069190610a0e565b60405180910390f35b34801561021b57600080fd5b506102246105b1565b6040516102319190610a0e565b60405180910390f35b34801561024657600080fd5b50610261600480360381019061025c9190610935565b6105b7565b60405161027093929190610a29565b60405180910390f35b34801561028557600080fd5b5061028e6105e1565b60405161029b9190610a0e565b60405180910390f35b3480156102b057600080fd5b506102b96106a3565b6040516102c69190610a0e565b60405180910390f35b6102d76106a9565b005b6102f360048036038101906102ee919061098f565b6106fb565b005b34801561030157600080fd5b5061030a610859565b6040516103179190610a0e565b60405180910390f35b34801561032c57600080fd5b5061033561085f565b6040516103429190610a0e565b60405180910390f35b34801561035757600080fd5b50610360610869565b005b8073ffffffffffffffffffffffffffffffffffffffff166108fc6103846103b9565b9081150290604051600060405180830381858888f193505050501580156103af573d6000803e3d6000fd5b5050565b60025481565b600047905090565b6000600354905090565b60003390506000600660003373ffffffffffffffffffffffffffffffffffffffff1673ffffffffffffffffffffffffffffffffffffffff168152602001908152602001600020600101546004546104229190610ba5565b9050600081600660003373ffffffffffffffffffffffffffffffffffffffff1673ffffffffffffffffffffffffffffffffffffffff168152602001908152602001600020600001546104749190610b4b565b90506000600354826104869190610b1a565b9050600454600660003373ffffffffffffffffffffffffffffffffffffffff1673ffffffffffffffffffffffffffffffffffffffff1681526020019081526020016000206001018190555060008111610514576040517f08c379a000000000000000000000000000000000000000000000000000000000815260040161050b906109ee565b60405180910390fd5b8373ffffffffffffffffffffffffffffffffffffffff166108fc829081150290604051600060405180830381858888f1935050505015801561055a573d6000803e3d6000fd5b5050505050565b60035481565b6000600660003373ffffffffffffffffffffffffffffffffffffffff1673ffffffffffffffffffffffffffffffffffffffff16815260200190815260200160002060000154905090565b60015481565b60066020528060005260406000206000915090508060000154908060010154908060020154905083565b600080600660003373ffffffffffffffffffffffffffffffffffffffff1673ffffffffffffffffffffffffffffffffffffffff168152602001908152602001600020600101546004546106349190610ba5565b9050600081600660003373ffffffffffffffffffffffffffffffffffffffff1673ffffffffffffffffffffffffffffffffffffffff168152602001908152602001600020600001546106869190610b4b565b90506000600354826106989190610b1a565b905080935050505090565b60055481565b34600160008282546106bb9190610ac4565b925050819055507ff17715ef19540cd5d39272c3efa67acccca56433dafd1671622021a4cfe6ca74476040516106f19190610a0e565b60405180910390a1565b6002346107089190610b1a565b600460008282546107199190610ac4565b9250508190555060023461072d9190610b1a565b6005600082825461073e9190610ac4565b9250508190555080600660003373ffffffffffffffffffffffffffffffffffffffff1673ffffffffffffffffffffffffffffffffffffffff16815260200190815260200160002060000160008282546107979190610ac4565b9250508190555080600360008282546107b09190610ac4565b925050819055506002546002546107c79190610ac4565b6002819055507f2f6137ffda9938898998a466f613090641d553b82ec9d1e8b22390f3501bd23c600660003373ffffffffffffffffffffffffffffffffffffffff1673ffffffffffffffffffffffffffffffffffffffff1681526020019081526020016000206000015460035460025460045460055460405161084e959493929190610a60565b60405180910390a150565b60045481565b6000600254905090565b60003390508073ffffffffffffffffffffffffffffffffffffffff166108fc6108906103b9565b9081150290604051600060405180830381858888f193505050501580156108bb573d6000803e3d6000fd5b507ff17715ef19540cd5d39272c3efa67acccca56433dafd1671622021a4cfe6ca74476040516108eb9190610a0e565b60405180910390a150565b60008135905061090581610cb3565b92915050565b60008135905061091a81610cca565b92915050565b60008135905061092f81610ce1565b92915050565b60006020828403121561094b5761094a610c85565b5b6000610959848285016108f6565b91505092915050565b60006020828403121561097857610977610c85565b5b60006109868482850161090b565b91505092915050565b6000602082840312156109a5576109a4610c85565b5b60006109b384828501610920565b91505092915050565b60006109c9601c83610ab3565b91506109d482610c8a565b602082019050919050565b6109e881610c1d565b82525050565b60006020820190508181036000830152610a07816109bc565b9050919050565b6000602082019050610a2360008301846109df565b92915050565b6000606082019050610a3e60008301866109df565b610a4b60208301856109df565b610a5860408301846109df565b949350505050565b600060a082019050610a7560008301886109df565b610a8260208301876109df565b610a8f60408301866109df565b610a9c60608301856109df565b610aa960808301846109df565b9695505050505050565b600082825260208201905092915050565b6000610acf82610c1d565b9150610ada83610c1d565b9250827fffffffffffffffffffffffffffffffffffffffffffffffffffffffffffffffff03821115610b0f57610b0e610c27565b5b828201905092915050565b6000610b2582610c1d565b9150610b3083610c1d565b925082610b4057610b3f610c56565b5b828204905092915050565b6000610b5682610c1d565b9150610b6183610c1d565b9250817fffffffffffffffffffffffffffffffffffffffffffffffffffffffffffffffff0483118215151615610b9a57610b99610c27565b5b828202905092915050565b6000610bb082610c1d565b9150610bbb83610c1d565b925082821015610bce57610bcd610c27565b5b828203905092915050565b6000610be482610bfd565b9050919050565b6000610bf682610bfd565b9050919050565b600073ffffffffffffffffffffffffffffffffffffffff82169050919050565b6000819050919050565b7f4e487b7100000000000000000000000000000000000000000000000000000000600052601160045260246000fd5b7f4e487b7100000000000000000000000000000000000000000000000000000000600052601260045260246000fd5b600080fd5b7f596f752068617665206e6f206469767669657320746f20636c61696d00000000600082015250565b610cbc81610bd9565b8114610cc757600080fd5b50565b610cd381610beb565b8114610cde57600080fd5b50565b610cea81610c1d565b8114610cf557600080fd5b5056fea264697066735822122081ab20fb1b7f4b1e346755cd5c182372907abbd397a737d35bcfefa712ec994664736f6c63430008050033",
  "immutableReferences": {},
  "source": "//SPDX-License-Identifier: MIT\n\npragma solidity ^0.8.4;\n\ncontract FomoOE {\n    address owner;\n    uint public balanceReceived;\n    uint public keyPrice = 100 wei;\n    uint public totalKeys;\n    uint public divPool;\n    uint public jackpot;\n    // mapping(address => uint) public keyBalance;\n\n    struct Divvies {\n        uint _keyBalance;\n        uint _totalDivPoolAtWithdraw;\n        uint _divBalance;\n    }\n\n    mapping(address => Divvies) public divTracker;\n    event keysPurchased(uint _userKeyBalance, uint _totalKeys, uint _keyPrice, uint _divPool, uint _jackpot);\n    event contractBalance(uint _balanceReceived);\n    event currentKeyPrice(uint keyPrice);\n    constructor() {\n        owner = msg.sender;\n    }\n\n    function receiveMoney() public payable {\n        balanceReceived += msg.value;\n        emit contractBalance(address(this).balance);\n    }\n    function getBalance() public view returns(uint) {\n        return address(this).balance;\n    }\n    function withdrawMoney() public {\n        address payable to = payable(msg.sender);\n        to.transfer(getBalance());\n        emit contractBalance(address(this).balance);\n    }\n    function withdrawMoneyTo(address payable _to) public {\n        _to.transfer(getBalance());\n    }\n\n    function purchaseKeys(uint _amount) public payable {\n        // require(msg.value*_amount == keyPrice*_amount, \"not enough to buy the key(s).\");\n        // keyBalance[msg.sender] += _amount;\n        // TODO: ADDRESS ROUNDING ISSUE\n        divPool += msg.value/2;\n        jackpot += msg.value/2;\n        divTracker[msg.sender]._keyBalance += _amount;\n        totalKeys += _amount;\n        keyPrice = keyPrice + keyPrice;\n        emit keysPurchased(divTracker[msg.sender]._keyBalance, totalKeys, keyPrice, divPool, jackpot);   \n    } \n    function getTotalKeyBalance() public view returns(uint) {\n        return totalKeys;\n    }\n    function getUserKeyBalance() public view returns(uint) {\n        return divTracker[msg.sender]._keyBalance;\n    }\n\n    function getKeyPrice() public view returns(uint) {\n        return keyPrice;\n    }\n\n    function withdrawDivvies() public {\n        address payable to = payable(msg.sender);\n        uint userDivPool = divPool - divTracker[msg.sender]._totalDivPoolAtWithdraw;\n        uint numerator = divTracker[msg.sender]._keyBalance * userDivPool;\n        uint _divBalance = numerator/totalKeys;\n        divTracker[msg.sender]._totalDivPoolAtWithdraw = divPool;\n        require(_divBalance > 0, \"You have no divvies to claim\");\n        to.transfer(_divBalance);\n    }\n\n    function updateDivvies() public view returns(uint) {\n        // the pool a user's dividend is entitled to since last dividend withdraw.\n        uint userDivPool = divPool - divTracker[msg.sender]._totalDivPoolAtWithdraw;\n        uint numerator = divTracker[msg.sender]._keyBalance * userDivPool;\n        uint _divBalance = numerator/totalKeys;\n        return _divBalance;\n    }\n    \n\n}",
  "sourcePath": "/Users/austin/Desktop/dapps/FomoOE/contracts/FomoOE.sol",
  "compiler": {
    "name": "solc",
    "version": "0.8.5+commit.a4f2e591.Emscripten.clang"
  },
  "schemaVersion": "3.4.2",
  "updatedAt": "2021-08-14T22:17:29.885Z",
  "networkType": "ethereum",
  "devdoc": {
    "kind": "dev",
    "methods": {},
    "version": 1
  },
  "userdoc": {
    "kind": "user",
    "methods": {},
    "version": 1
  }
}