{
  "contractName": "FomoOE",
  "abi": [
    {
      "inputs": [],
      "stateMutability": "nonpayable",
      "type": "constructor"
    },
    {
      "anonymous": false,
      "inputs": [
        {
          "indexed": false,
          "internalType": "uint256",
          "name": "_balanceReceived",
          "type": "uint256"
        }
      ],
      "name": "contractBalance",
      "type": "event"
    },
    {
      "anonymous": false,
      "inputs": [
        {
          "indexed": false,
          "internalType": "uint256",
          "name": "keyPrice",
          "type": "uint256"
        }
      ],
      "name": "currentKeyPrice",
      "type": "event"
    },
    {
      "anonymous": false,
      "inputs": [
        {
          "indexed": false,
          "internalType": "uint256",
          "name": "_userKeyBalance",
          "type": "uint256"
        },
        {
          "indexed": false,
          "internalType": "uint256",
          "name": "_totalKeys",
          "type": "uint256"
        },
        {
          "indexed": false,
          "internalType": "uint256",
          "name": "_keyPrice",
          "type": "uint256"
        },
        {
          "indexed": false,
          "internalType": "uint256",
          "name": "_divPool",
          "type": "uint256"
        },
        {
          "indexed": false,
          "internalType": "uint256",
          "name": "_jackpot",
          "type": "uint256"
        }
      ],
      "name": "keysPurchased",
      "type": "event"
    },
    {
      "anonymous": false,
      "inputs": [
        {
          "indexed": false,
          "internalType": "uint256",
          "name": "_userDivvies",
          "type": "uint256"
        }
      ],
      "name": "userDivvies",
      "type": "event"
    },
    {
      "inputs": [],
      "name": "balanceReceived",
      "outputs": [
        {
          "internalType": "uint256",
          "name": "",
          "type": "uint256"
        }
      ],
      "stateMutability": "view",
      "type": "function",
      "constant": true
    },
    {
      "inputs": [],
      "name": "divPool",
      "outputs": [
        {
          "internalType": "uint256",
          "name": "",
          "type": "uint256"
        }
      ],
      "stateMutability": "view",
      "type": "function",
      "constant": true
    },
    {
      "inputs": [
        {
          "internalType": "address",
          "name": "",
          "type": "address"
        }
      ],
      "name": "divTracker",
      "outputs": [
        {
          "internalType": "uint256",
          "name": "_keyBalance",
          "type": "uint256"
        },
        {
          "internalType": "uint256",
          "name": "_totalDivPoolAtWithdraw",
          "type": "uint256"
        },
        {
          "internalType": "uint256",
          "name": "_divBalance",
          "type": "uint256"
        }
      ],
      "stateMutability": "view",
      "type": "function",
      "constant": true
    },
    {
      "inputs": [],
      "name": "jackpot",
      "outputs": [
        {
          "internalType": "uint256",
          "name": "",
          "type": "uint256"
        }
      ],
      "stateMutability": "view",
      "type": "function",
      "constant": true
    },
    {
      "inputs": [],
      "name": "keyPrice",
      "outputs": [
        {
          "internalType": "uint256",
          "name": "",
          "type": "uint256"
        }
      ],
      "stateMutability": "view",
      "type": "function",
      "constant": true
    },
    {
      "inputs": [],
      "name": "totalKeys",
      "outputs": [
        {
          "internalType": "uint256",
          "name": "",
          "type": "uint256"
        }
      ],
      "stateMutability": "view",
      "type": "function",
      "constant": true
    },
    {
      "inputs": [],
      "name": "receiveMoney",
      "outputs": [],
      "stateMutability": "payable",
      "type": "function",
      "payable": true
    },
    {
      "inputs": [],
      "name": "getBalance",
      "outputs": [
        {
          "internalType": "uint256",
          "name": "",
          "type": "uint256"
        }
      ],
      "stateMutability": "view",
      "type": "function",
      "constant": true
    },
    {
      "inputs": [],
      "name": "withdrawMoney",
      "outputs": [],
      "stateMutability": "nonpayable",
      "type": "function"
    },
    {
      "inputs": [
        {
          "internalType": "address payable",
          "name": "_to",
          "type": "address"
        }
      ],
      "name": "withdrawMoneyTo",
      "outputs": [],
      "stateMutability": "nonpayable",
      "type": "function"
    },
    {
      "inputs": [
        {
          "internalType": "uint256",
          "name": "_amount",
          "type": "uint256"
        }
      ],
      "name": "purchaseKeys",
      "outputs": [],
      "stateMutability": "payable",
      "type": "function",
      "payable": true
    },
    {
      "inputs": [],
      "name": "getTotalKeyBalance",
      "outputs": [
        {
          "internalType": "uint256",
          "name": "",
          "type": "uint256"
        }
      ],
      "stateMutability": "view",
      "type": "function",
      "constant": true
    },
    {
      "inputs": [],
      "name": "getUserKeyBalance",
      "outputs": [
        {
          "internalType": "uint256",
          "name": "",
          "type": "uint256"
        }
      ],
      "stateMutability": "view",
      "type": "function",
      "constant": true
    },
    {
      "inputs": [],
      "name": "getKeyPrice",
      "outputs": [
        {
          "internalType": "uint256",
          "name": "",
          "type": "uint256"
        }
      ],
      "stateMutability": "view",
      "type": "function",
      "constant": true
    },
    {
      "inputs": [],
      "name": "withdrawDivvies",
      "outputs": [],
      "stateMutability": "nonpayable",
      "type": "function"
    },
    {
      "inputs": [],
      "name": "updateDivvies",
      "outputs": [
        {
          "internalType": "uint256",
          "name": "",
          "type": "uint256"
        }
      ],
      "stateMutability": "nonpayable",
      "type": "function"
    },
    {
      "inputs": [],
      "name": "updateDivvies2",
      "outputs": [],
      "stateMutability": "nonpayable",
      "type": "function"
    }
  ],
  "bytecode": "0x6080604052606460025534801561001557600080fd5b50336000806101000a81548173ffffffffffffffffffffffffffffffffffffffff021916908373ffffffffffffffffffffffffffffffffffffffff160217905550610f8c806100656000396000f3fe6080604052600436106100fe5760003560e01c806355fcbbff116100955780636d26ec18116100645780636d26ec18146102f157806378c3171f146102fb5780637c2be5dd14610317578063a440a19014610342578063ac4460021461036d576100fe565b806355fcbbff146102455780635f4d67fc1461028457806368eb20f81461029b5780636b31ee01146102c6576100fe565b80631ebe585d116100d15780631ebe585d146101ad578063488bdabc146101c457806351679cc0146101ef57806352a90c421461021a576100fe565b80630ff8d8a51461010357806310e569731461012c57806312065fe01461015757806317c56f8414610182575b600080fd5b34801561010f57600080fd5b5061012a60048036038101906101259190610bc0565b610384565b005b34801561013857600080fd5b506101416103d5565b60405161014e9190610c6c565b60405180910390f35b34801561016357600080fd5b5061016c6103db565b6040516101799190610c6c565b60405180910390f35b34801561018e57600080fd5b506101976103e3565b6040516101a49190610c6c565b60405180910390f35b3480156101b957600080fd5b506101c26103ed565b005b3480156101d057600080fd5b506101d9610583565b6040516101e69190610c6c565b60405180910390f35b3480156101fb57600080fd5b50610204610589565b6040516102119190610c6c565b60405180910390f35b34801561022657600080fd5b5061022f6105d3565b60405161023c9190610c6c565b60405180910390f35b34801561025157600080fd5b5061026c60048036038101906102679190610b93565b6105d9565b60405161027b93929190610c87565b60405180910390f35b34801561029057600080fd5b50610299610603565b005b3480156102a757600080fd5b506102b0610780565b6040516102bd9190610c6c565b60405180910390f35b3480156102d257600080fd5b506102db610902565b6040516102e89190610c6c565b60405180910390f35b6102f9610908565b005b61031560048036038101906103109190610bed565b61095a565b005b34801561032357600080fd5b5061032c610ab7565b6040516103399190610c6c565b60405180910390f35b34801561034e57600080fd5b50610357610abd565b6040516103649190610c6c565b60405180910390f35b34801561037957600080fd5b50610382610ac7565b005b8073ffffffffffffffffffffffffffffffffffffffff166108fc6103a66103db565b9081150290604051600060405180830381858888f193505050501580156103d1573d6000803e3d6000fd5b5050565b60025481565b600047905090565b6000600354905090565b60003390506000600660003373ffffffffffffffffffffffffffffffffffffffff1673ffffffffffffffffffffffffffffffffffffffff168152602001908152602001600020600101546004546104449190610e03565b9050600081600660003373ffffffffffffffffffffffffffffffffffffffff1673ffffffffffffffffffffffffffffffffffffffff168152602001908152602001600020600001546104969190610da9565b90506000600354826104a89190610d78565b9050600454600660003373ffffffffffffffffffffffffffffffffffffffff1673ffffffffffffffffffffffffffffffffffffffff1681526020019081526020016000206001018190555060008111610536576040517f08c379a000000000000000000000000000000000000000000000000000000000815260040161052d90610c4c565b60405180910390fd5b8373ffffffffffffffffffffffffffffffffffffffff166108fc829081150290604051600060405180830381858888f1935050505015801561057c573d6000803e3d6000fd5b5050505050565b60035481565b6000600660003373ffffffffffffffffffffffffffffffffffffffff1673ffffffffffffffffffffffffffffffffffffffff16815260200190815260200160002060000154905090565b60015481565b60066020528060005260406000206000915090508060000154908060010154908060020154905083565b6000600660003373ffffffffffffffffffffffffffffffffffffffff1673ffffffffffffffffffffffffffffffffffffffff168152602001908152602001600020600101546004546106559190610e03565b9050600081600660003373ffffffffffffffffffffffffffffffffffffffff1673ffffffffffffffffffffffffffffffffffffffff168152602001908152602001600020600001546106a79190610da9565b90506000600354826106b99190610d78565b90507f2f6137ffda9938898998a466f613090641d553b82ec9d1e8b22390f3501bd23c600660003373ffffffffffffffffffffffffffffffffffffffff1673ffffffffffffffffffffffffffffffffffffffff1681526020019081526020016000206000015460035460025460045460055460405161073c959493929190610cbe565b60405180910390a17f6a1c5908145acc98f6681fe653e3018a0fdd062b333be46462a0b72fb81de01b816040516107739190610c6c565b60405180910390a1505050565b600080600660003373ffffffffffffffffffffffffffffffffffffffff1673ffffffffffffffffffffffffffffffffffffffff168152602001908152602001600020600101546004546107d39190610e03565b9050600081600660003373ffffffffffffffffffffffffffffffffffffffff1673ffffffffffffffffffffffffffffffffffffffff168152602001908152602001600020600001546108259190610da9565b90506000600354826108379190610d78565b90507f2f6137ffda9938898998a466f613090641d553b82ec9d1e8b22390f3501bd23c600660003373ffffffffffffffffffffffffffffffffffffffff1673ffffffffffffffffffffffffffffffffffffffff168152602001908152602001600020600001546003546002546004546005546040516108ba959493929190610cbe565b60405180910390a17f6a1c5908145acc98f6681fe653e3018a0fdd062b333be46462a0b72fb81de01b816040516108f19190610c6c565b60405180910390a180935050505090565b60055481565b346001600082825461091a9190610d22565b925050819055507ff17715ef19540cd5d39272c3efa67acccca56433dafd1671622021a4cfe6ca74476040516109509190610c6c565b60405180910390a1565b6002346109679190610d78565b600460008282546109789190610d22565b9250508190555060023461098c9190610d78565b6005600082825461099d9190610d22565b9250508190555080600660003373ffffffffffffffffffffffffffffffffffffffff1673ffffffffffffffffffffffffffffffffffffffff16815260200190815260200160002060000160008282546109f69190610d22565b925050819055508060036000828254610a0f9190610d22565b925050819055506064600254610a259190610d22565b6002819055507f2f6137ffda9938898998a466f613090641d553b82ec9d1e8b22390f3501bd23c600660003373ffffffffffffffffffffffffffffffffffffffff1673ffffffffffffffffffffffffffffffffffffffff16815260200190815260200160002060000154600354600254600454600554604051610aac959493929190610cbe565b60405180910390a150565b60045481565b6000600254905090565b60003390508073ffffffffffffffffffffffffffffffffffffffff166108fc610aee6103db565b9081150290604051600060405180830381858888f19350505050158015610b19573d6000803e3d6000fd5b507ff17715ef19540cd5d39272c3efa67acccca56433dafd1671622021a4cfe6ca7447604051610b499190610c6c565b60405180910390a150565b600081359050610b6381610f11565b92915050565b600081359050610b7881610f28565b92915050565b600081359050610b8d81610f3f565b92915050565b600060208284031215610ba957610ba8610ee3565b5b6000610bb784828501610b54565b91505092915050565b600060208284031215610bd657610bd5610ee3565b5b6000610be484828501610b69565b91505092915050565b600060208284031215610c0357610c02610ee3565b5b6000610c1184828501610b7e565b91505092915050565b6000610c27601c83610d11565b9150610c3282610ee8565b602082019050919050565b610c4681610e7b565b82525050565b60006020820190508181036000830152610c6581610c1a565b9050919050565b6000602082019050610c816000830184610c3d565b92915050565b6000606082019050610c9c6000830186610c3d565b610ca96020830185610c3d565b610cb66040830184610c3d565b949350505050565b600060a082019050610cd36000830188610c3d565b610ce06020830187610c3d565b610ced6040830186610c3d565b610cfa6060830185610c3d565b610d076080830184610c3d565b9695505050505050565b600082825260208201905092915050565b6000610d2d82610e7b565b9150610d3883610e7b565b9250827fffffffffffffffffffffffffffffffffffffffffffffffffffffffffffffffff03821115610d6d57610d6c610e85565b5b828201905092915050565b6000610d8382610e7b565b9150610d8e83610e7b565b925082610d9e57610d9d610eb4565b5b828204905092915050565b6000610db482610e7b565b9150610dbf83610e7b565b9250817fffffffffffffffffffffffffffffffffffffffffffffffffffffffffffffffff0483118215151615610df857610df7610e85565b5b828202905092915050565b6000610e0e82610e7b565b9150610e1983610e7b565b925082821015610e2c57610e2b610e85565b5b828203905092915050565b6000610e4282610e5b565b9050919050565b6000610e5482610e5b565b9050919050565b600073ffffffffffffffffffffffffffffffffffffffff82169050919050565b6000819050919050565b7f4e487b7100000000000000000000000000000000000000000000000000000000600052601160045260246000fd5b7f4e487b7100000000000000000000000000000000000000000000000000000000600052601260045260246000fd5b600080fd5b7f596f752068617665206e6f206469767669657320746f20636c61696d00000000600082015250565b610f1a81610e37565b8114610f2557600080fd5b50565b610f3181610e49565b8114610f3c57600080fd5b50565b610f4881610e7b565b8114610f5357600080fd5b5056fea2646970667358221220338e555628df295aede75c22f9e01c7a0998439d1eac2742cc80cc4e0131bcbb64736f6c63430008050033",
  "immutableReferences": {},
  "source": "//SPDX-License-Identifier: MIT\n\npragma solidity ^0.8.4;\n\ncontract FomoOE {\n    address owner;\n    uint public balanceReceived;\n    uint public keyPrice = 100 wei;\n    uint public totalKeys;\n    uint public divPool;\n    uint public jackpot;\n    // mapping(address => uint) public keyBalance;\n\n    struct Divvies {\n        uint _keyBalance;\n        uint _totalDivPoolAtWithdraw;\n        uint _divBalance;\n    }\n\n    mapping(address => Divvies) public divTracker;\n    event keysPurchased(uint _userKeyBalance, uint _totalKeys, uint _keyPrice, uint _divPool, uint _jackpot);\n    event userDivvies(uint _userDivvies);\n    event contractBalance(uint _balanceReceived);\n    event currentKeyPrice(uint keyPrice);\n    constructor() {\n        owner = msg.sender;\n    }\n\n    function receiveMoney() public payable {\n        balanceReceived += msg.value;\n        emit contractBalance(address(this).balance);\n    }\n    function getBalance() public view returns(uint) {\n        return address(this).balance;\n    }\n    function withdrawMoney() public {\n        address payable to = payable(msg.sender);\n        to.transfer(getBalance());\n        emit contractBalance(address(this).balance);\n    }\n    function withdrawMoneyTo(address payable _to) public {\n        _to.transfer(getBalance());\n    }\n\n    function purchaseKeys(uint _amount) public payable {\n        // require(msg.value*_amount == keyPrice*_amount, \"not enough to buy the key(s).\");\n        // keyBalance[msg.sender] += _amount;\n        // TODO: ADDRESS ROUNDING ISSUE\n        divPool += msg.value/2;\n        jackpot += msg.value/2;\n        divTracker[msg.sender]._keyBalance += _amount;\n        totalKeys += _amount;\n        keyPrice = keyPrice + 100;\n        emit keysPurchased(divTracker[msg.sender]._keyBalance, totalKeys, keyPrice, divPool, jackpot);   \n    } \n    function getTotalKeyBalance() public view returns(uint) {\n        return totalKeys;\n    }\n    function getUserKeyBalance() public view returns(uint) {\n        return divTracker[msg.sender]._keyBalance;\n    }\n\n    function getKeyPrice() public view returns(uint) {\n        return keyPrice;\n    }\n\n    function withdrawDivvies() public {\n        address payable to = payable(msg.sender);\n        uint userDivPool = divPool - divTracker[msg.sender]._totalDivPoolAtWithdraw;\n        uint numerator = divTracker[msg.sender]._keyBalance * userDivPool;\n        uint _divBalance = numerator/totalKeys;\n        divTracker[msg.sender]._totalDivPoolAtWithdraw = divPool;\n        require(_divBalance > 0, \"You have no divvies to claim\");\n        to.transfer(_divBalance);\n    }\n\n    function updateDivvies() public returns(uint) {\n        // the pool a user's dividend is entitled to since last dividend withdraw.\n        uint userDivPool = divPool - divTracker[msg.sender]._totalDivPoolAtWithdraw;\n        uint numerator = divTracker[msg.sender]._keyBalance * userDivPool;\n        uint _divBalance = numerator/totalKeys;\n        emit keysPurchased(divTracker[msg.sender]._keyBalance, totalKeys, keyPrice, divPool, jackpot);\n        emit userDivvies(_divBalance);\n        return _divBalance;\n    }\n\n    function updateDivvies2() public {\n        // the pool a user's dividend is entitled to since last dividend withdraw.\n        uint userDivPool = divPool - divTracker[msg.sender]._totalDivPoolAtWithdraw;\n        uint numerator = divTracker[msg.sender]._keyBalance * userDivPool;\n        uint _divBalance = numerator/totalKeys;\n        emit keysPurchased(divTracker[msg.sender]._keyBalance, totalKeys, keyPrice, divPool, jackpot);\n        emit userDivvies(_divBalance);\n    }\n    \n\n}",
  "sourcePath": "/Users/austin/Desktop/dapps/FomoOE/contracts/FomoOE.sol",
  "compiler": {
    "name": "solc",
    "version": "0.8.5+commit.a4f2e591.Emscripten.clang"
  },
  "schemaVersion": "3.4.2",
  "updatedAt": "2021-08-15T22:32:34.359Z",
  "networkType": "ethereum",
  "devdoc": {
    "kind": "dev",
    "methods": {},
    "version": 1
  },
  "userdoc": {
    "kind": "user",
    "methods": {},
    "version": 1
  }
}