{
  "contractName": "FomoOE",
  "abi": [
    {
      "inputs": [],
      "stateMutability": "nonpayable",
      "type": "constructor"
    },
    {
      "anonymous": false,
      "inputs": [
        {
          "indexed": false,
          "internalType": "uint256",
          "name": "_balanceReceived",
          "type": "uint256"
        }
      ],
      "name": "contractBalance",
      "type": "event"
    },
    {
      "anonymous": false,
      "inputs": [
        {
          "indexed": false,
          "internalType": "uint256",
          "name": "keyPrice",
          "type": "uint256"
        }
      ],
      "name": "currentKeyPrice",
      "type": "event"
    },
    {
      "anonymous": false,
      "inputs": [
        {
          "indexed": false,
          "internalType": "uint256",
          "name": "_userKeyBalance",
          "type": "uint256"
        },
        {
          "indexed": false,
          "internalType": "uint256",
          "name": "_totalKeys",
          "type": "uint256"
        },
        {
          "indexed": false,
          "internalType": "uint256",
          "name": "_keyPrice",
          "type": "uint256"
        }
      ],
      "name": "keysPurchased",
      "type": "event"
    },
    {
      "inputs": [],
      "name": "balanceReceived",
      "outputs": [
        {
          "internalType": "uint256",
          "name": "",
          "type": "uint256"
        }
      ],
      "stateMutability": "view",
      "type": "function",
      "constant": true
    },
    {
      "inputs": [
        {
          "internalType": "address",
          "name": "",
          "type": "address"
        }
      ],
      "name": "keyBalance",
      "outputs": [
        {
          "internalType": "uint256",
          "name": "",
          "type": "uint256"
        }
      ],
      "stateMutability": "view",
      "type": "function",
      "constant": true
    },
    {
      "inputs": [],
      "name": "keyPrice",
      "outputs": [
        {
          "internalType": "uint256",
          "name": "",
          "type": "uint256"
        }
      ],
      "stateMutability": "view",
      "type": "function",
      "constant": true
    },
    {
      "inputs": [],
      "name": "totalKeys",
      "outputs": [
        {
          "internalType": "uint256",
          "name": "",
          "type": "uint256"
        }
      ],
      "stateMutability": "view",
      "type": "function",
      "constant": true
    },
    {
      "inputs": [],
      "name": "receiveMoney",
      "outputs": [],
      "stateMutability": "payable",
      "type": "function",
      "payable": true
    },
    {
      "inputs": [],
      "name": "getBalance",
      "outputs": [
        {
          "internalType": "uint256",
          "name": "",
          "type": "uint256"
        }
      ],
      "stateMutability": "view",
      "type": "function",
      "constant": true
    },
    {
      "inputs": [],
      "name": "withdrawMoney",
      "outputs": [],
      "stateMutability": "nonpayable",
      "type": "function"
    },
    {
      "inputs": [
        {
          "internalType": "address payable",
          "name": "_to",
          "type": "address"
        }
      ],
      "name": "withdrawMoneyTo",
      "outputs": [],
      "stateMutability": "nonpayable",
      "type": "function"
    },
    {
      "inputs": [
        {
          "internalType": "uint256",
          "name": "_amount",
          "type": "uint256"
        }
      ],
      "name": "purchaseKeys",
      "outputs": [],
      "stateMutability": "payable",
      "type": "function",
      "payable": true
    },
    {
      "inputs": [],
      "name": "getTotalKeyBalance",
      "outputs": [
        {
          "internalType": "uint256",
          "name": "",
          "type": "uint256"
        }
      ],
      "stateMutability": "view",
      "type": "function",
      "constant": true
    },
    {
      "inputs": [],
      "name": "getUserKeyBalance",
      "outputs": [
        {
          "internalType": "uint256",
          "name": "",
          "type": "uint256"
        }
      ],
      "stateMutability": "view",
      "type": "function",
      "constant": true
    },
    {
      "inputs": [
        {
          "internalType": "address",
          "name": "_address",
          "type": "address"
        }
      ],
      "name": "loadUserKeyBalance",
      "outputs": [
        {
          "internalType": "uint256",
          "name": "",
          "type": "uint256"
        }
      ],
      "stateMutability": "view",
      "type": "function",
      "constant": true
    },
    {
      "inputs": [],
      "name": "getKeyPrice",
      "outputs": [
        {
          "internalType": "uint256",
          "name": "",
          "type": "uint256"
        }
      ],
      "stateMutability": "view",
      "type": "function",
      "constant": true
    }
  ],
  "bytecode": "0x6080604052606460025534801561001557600080fd5b50336000806101000a81548173ffffffffffffffffffffffffffffffffffffffff021916908373ffffffffffffffffffffffffffffffffffffffff160217905550610858806100656000396000f3fe6080604052600436106100c25760003560e01c806351679cc01161007f5780636d26ec18116100595780636d26ec181461026c57806378c3171f14610276578063a440a19014610292578063ac446002146102bd576100c2565b806351679cc0146101d957806352a90c421461020457806364954e141461022f576100c2565b80630ff8d8a5146100c757806310e56973146100f057806312065fe01461011b57806317c56f84146101465780631e39f7cc14610171578063488bdabc146101ae575b600080fd5b3480156100d357600080fd5b506100ee60048036038101906100e9919061064a565b6102d4565b005b3480156100fc57600080fd5b50610105610325565b60405161011291906106b3565b60405180910390f35b34801561012757600080fd5b5061013061032b565b60405161013d91906106b3565b60405180910390f35b34801561015257600080fd5b5061015b610333565b60405161016891906106b3565b60405180910390f35b34801561017d57600080fd5b506101986004803603810190610193919061061d565b61033d565b6040516101a591906106b3565b60405180910390f35b3480156101ba57600080fd5b506101c3610386565b6040516101d091906106b3565b60405180910390f35b3480156101e557600080fd5b506101ee61038c565b6040516101fb91906106b3565b60405180910390f35b34801561021057600080fd5b506102196103d3565b60405161022691906106b3565b60405180910390f35b34801561023b57600080fd5b506102566004803603810190610251919061061d565b6103d9565b60405161026391906106b3565b60405180910390f35b6102746103f1565b005b610290600480360381019061028b9190610677565b610443565b005b34801561029e57600080fd5b506102a7610547565b6040516102b491906106b3565b60405180910390f35b3480156102c957600080fd5b506102d2610551565b005b8073ffffffffffffffffffffffffffffffffffffffff166108fc6102f661032b565b9081150290604051600060405180830381858888f19350505050158015610321573d6000803e3d6000fd5b5050565b60025481565b600047905090565b6000600354905090565b6000600460008373ffffffffffffffffffffffffffffffffffffffff1673ffffffffffffffffffffffffffffffffffffffff168152602001908152602001600020549050919050565b60035481565b6000600460003373ffffffffffffffffffffffffffffffffffffffff1673ffffffffffffffffffffffffffffffffffffffff16815260200190815260200160002054905090565b60015481565b60046020528060005260406000206000915090505481565b34600160008282546104039190610705565b925050819055507ff17715ef19540cd5d39272c3efa67acccca56433dafd1671622021a4cfe6ca744760405161043991906106b3565b60405180910390a1565b80600460003373ffffffffffffffffffffffffffffffffffffffff1673ffffffffffffffffffffffffffffffffffffffff16815260200190815260200160002060008282546104929190610705565b9250508190555080600360008282546104ab9190610705565b92505081905550806002546104c09190610705565b6002819055507f9faad0275d186f17b8110d2fad4248feaa072513837758e2a27b5d8aec8d7b41600460003373ffffffffffffffffffffffffffffffffffffffff1673ffffffffffffffffffffffffffffffffffffffff1681526020019081526020016000205460035460025460405161053c939291906106ce565b60405180910390a150565b6000600254905090565b60003390508073ffffffffffffffffffffffffffffffffffffffff166108fc61057861032b565b9081150290604051600060405180830381858888f193505050501580156105a3573d6000803e3d6000fd5b507ff17715ef19540cd5d39272c3efa67acccca56433dafd1671622021a4cfe6ca74476040516105d391906106b3565b60405180910390a150565b6000813590506105ed816107dd565b92915050565b600081359050610602816107f4565b92915050565b6000813590506106178161080b565b92915050565b600060208284031215610633576106326107d8565b5b6000610641848285016105de565b91505092915050565b6000602082840312156106605761065f6107d8565b5b600061066e848285016105f3565b91505092915050565b60006020828403121561068d5761068c6107d8565b5b600061069b84828501610608565b91505092915050565b6106ad8161079f565b82525050565b60006020820190506106c860008301846106a4565b92915050565b60006060820190506106e360008301866106a4565b6106f060208301856106a4565b6106fd60408301846106a4565b949350505050565b60006107108261079f565b915061071b8361079f565b9250827fffffffffffffffffffffffffffffffffffffffffffffffffffffffffffffffff038211156107505761074f6107a9565b5b828201905092915050565b60006107668261077f565b9050919050565b60006107788261077f565b9050919050565b600073ffffffffffffffffffffffffffffffffffffffff82169050919050565b6000819050919050565b7f4e487b7100000000000000000000000000000000000000000000000000000000600052601160045260246000fd5b600080fd5b6107e68161075b565b81146107f157600080fd5b50565b6107fd8161076d565b811461080857600080fd5b50565b6108148161079f565b811461081f57600080fd5b5056fea26469706673582212201ab18a49e09f0a0411cdf6f8644a339c3f9bc2cb23b3bd670082b5d4f74394fa64736f6c63430008050033",
  "immutableReferences": {},
  "source": "//SPDX-License-Identifier: MIT\n\npragma solidity ^0.8.4;\n\ncontract FomoOE {\n    address owner;\n    uint public balanceReceived;\n    uint public keyPrice = 100 wei;\n    uint public totalKeys;\n    mapping(address => uint) public keyBalance;\n    \n    event keysPurchased(uint _userKeyBalance, uint _totalKeys, uint _keyPrice);\n    event contractBalance(uint _balanceReceived);\n    event currentKeyPrice(uint keyPrice);\n    constructor() {\n        owner = msg.sender;\n    }\n\n    function receiveMoney() public payable {\n        balanceReceived += msg.value;\n        emit contractBalance(address(this).balance);\n    }\n    function getBalance() public view returns(uint) {\n        return address(this).balance;\n    }\n    function withdrawMoney() public {\n        address payable to = payable(msg.sender);\n        to.transfer(getBalance());\n        emit contractBalance(address(this).balance);\n    }\n    function withdrawMoneyTo(address payable _to) public {\n        _to.transfer(getBalance());\n    }\n\n    function purchaseKeys(uint _amount) public payable {\n        // require(msg.value*_amount == keyPrice*_amount, \"not enough to buy the key(s).\");\n        keyBalance[msg.sender] += _amount;\n        totalKeys += _amount;\n        keyPrice = keyPrice + _amount;\n        emit keysPurchased(keyBalance[msg.sender], totalKeys, keyPrice);   \n        // emit currentKeyPrice(keyPrice);\n    } \n    function getTotalKeyBalance() public view returns(uint) {\n        return totalKeys;\n    }\n    function getUserKeyBalance() public view returns(uint) {\n        return keyBalance[msg.sender];\n    }\n\n    function loadUserKeyBalance(address _address) public view returns(uint) {\n        return keyBalance[_address];\n    }\n    function getKeyPrice() public view returns(uint) {\n        return keyPrice;\n    }\n\n}",
  "sourcePath": "/Users/austin/Desktop/dapps/FomoOE/contracts/FomoOE.sol",
  "compiler": {
    "name": "solc",
    "version": "0.8.5+commit.a4f2e591.Emscripten.clang"
  },
  "schemaVersion": "3.4.2",
  "updatedAt": "2021-08-12T22:42:46.919Z",
  "networkType": "ethereum",
  "devdoc": {
    "kind": "dev",
    "methods": {},
    "version": 1
  },
  "userdoc": {
    "kind": "user",
    "methods": {},
    "version": 1
  }
}