{
  "contractName": "FomoOE",
  "abi": [
    {
      "inputs": [],
      "stateMutability": "nonpayable",
      "type": "constructor"
    },
    {
      "anonymous": false,
      "inputs": [
        {
          "indexed": false,
          "internalType": "uint256",
          "name": "_balanceReceived",
          "type": "uint256"
        }
      ],
      "name": "contractBalance",
      "type": "event"
    },
    {
      "anonymous": false,
      "inputs": [
        {
          "indexed": false,
          "internalType": "address",
          "name": "_by",
          "type": "address"
        },
        {
          "indexed": false,
          "internalType": "uint256",
          "name": "_amount",
          "type": "uint256"
        }
      ],
      "name": "keysPurchased",
      "type": "event"
    },
    {
      "inputs": [],
      "name": "balanceReceived",
      "outputs": [
        {
          "internalType": "uint256",
          "name": "",
          "type": "uint256"
        }
      ],
      "stateMutability": "view",
      "type": "function",
      "constant": true
    },
    {
      "inputs": [
        {
          "internalType": "address",
          "name": "",
          "type": "address"
        }
      ],
      "name": "keyBalance",
      "outputs": [
        {
          "internalType": "uint256",
          "name": "",
          "type": "uint256"
        }
      ],
      "stateMutability": "view",
      "type": "function",
      "constant": true
    },
    {
      "inputs": [],
      "name": "keyPrice",
      "outputs": [
        {
          "internalType": "uint256",
          "name": "",
          "type": "uint256"
        }
      ],
      "stateMutability": "view",
      "type": "function",
      "constant": true
    },
    {
      "inputs": [],
      "name": "totalKeys",
      "outputs": [
        {
          "internalType": "uint256",
          "name": "",
          "type": "uint256"
        }
      ],
      "stateMutability": "view",
      "type": "function",
      "constant": true
    },
    {
      "inputs": [],
      "name": "receiveMoney",
      "outputs": [],
      "stateMutability": "payable",
      "type": "function",
      "payable": true
    },
    {
      "inputs": [],
      "name": "getBalance",
      "outputs": [
        {
          "internalType": "uint256",
          "name": "",
          "type": "uint256"
        }
      ],
      "stateMutability": "view",
      "type": "function",
      "constant": true
    },
    {
      "inputs": [],
      "name": "withdrawMoney",
      "outputs": [],
      "stateMutability": "nonpayable",
      "type": "function"
    },
    {
      "inputs": [
        {
          "internalType": "address payable",
          "name": "_to",
          "type": "address"
        }
      ],
      "name": "withdrawMoneyTo",
      "outputs": [],
      "stateMutability": "nonpayable",
      "type": "function"
    },
    {
      "inputs": [
        {
          "internalType": "uint256",
          "name": "_amount",
          "type": "uint256"
        }
      ],
      "name": "purchaseKeys",
      "outputs": [],
      "stateMutability": "payable",
      "type": "function",
      "payable": true
    },
    {
      "inputs": [],
      "name": "getKeyBalance",
      "outputs": [
        {
          "internalType": "uint256",
          "name": "",
          "type": "uint256"
        }
      ],
      "stateMutability": "view",
      "type": "function",
      "constant": true
    },
    {
      "inputs": [],
      "name": "getKeyPrice",
      "outputs": [
        {
          "internalType": "uint256",
          "name": "",
          "type": "uint256"
        }
      ],
      "stateMutability": "view",
      "type": "function",
      "constant": true
    }
  ],
  "bytecode": "0x6080604052606460025534801561001557600080fd5b50336000806101000a81548173ffffffffffffffffffffffffffffffffffffffff021916908373ffffffffffffffffffffffffffffffffffffffff160217905550610837806100656000396000f3fe60806040526004361061009c5760003560e01c806364954e141161006457806364954e14146101765780636d26ec18146101b357806378c3171f146101bd578063a440a190146101d9578063ac44600214610204578063c89ad86b1461021b5761009c565b80630ff8d8a5146100a157806310e56973146100ca57806312065fe0146100f5578063488bdabc1461012057806352a90c421461014b575b600080fd5b3480156100ad57600080fd5b506100c860048036038101906100c39190610551565b610246565b005b3480156100d657600080fd5b506100df610297565b6040516100ec9190610635565b60405180910390f35b34801561010157600080fd5b5061010a61029d565b6040516101179190610635565b60405180910390f35b34801561012c57600080fd5b506101356102a5565b6040516101429190610635565b60405180910390f35b34801561015757600080fd5b506101606102ab565b60405161016d9190610635565b60405180910390f35b34801561018257600080fd5b5061019d60048036038101906101989190610524565b6102b1565b6040516101aa9190610635565b60405180910390f35b6101bb6102c9565b005b6101d760048036038101906101d2919061057e565b61031b565b005b3480156101e557600080fd5b506101ee610407565b6040516101fb9190610635565b60405180910390f35b34801561021057600080fd5b50610219610411565b005b34801561022757600080fd5b5061023061049e565b60405161023d9190610635565b60405180910390f35b8073ffffffffffffffffffffffffffffffffffffffff166108fc61026861029d565b9081150290604051600060405180830381858888f19350505050158015610293573d6000803e3d6000fd5b5050565b60025481565b600047905090565b60035481565b60015481565b60046020528060005260406000206000915090505481565b34600160008282546102db9190610661565b925050819055507ff17715ef19540cd5d39272c3efa67acccca56433dafd1671622021a4cfe6ca74476040516103119190610635565b60405180910390a1565b8060025461032991906106b7565b813461033591906106b7565b14610375576040517f08c379a000000000000000000000000000000000000000000000000000000000815260040161036c90610615565b60405180910390fd5b80600460003373ffffffffffffffffffffffffffffffffffffffff1673ffffffffffffffffffffffffffffffffffffffff16815260200190815260200160002060008282546103c49190610661565b925050819055507f607f533d81c5ae4db6430409fdcf816863371171ccc5e2ba434c825fcaec22d233826040516103fc9291906105ec565b60405180910390a150565b6000600254905090565b60003390508073ffffffffffffffffffffffffffffffffffffffff166108fc61043861029d565b9081150290604051600060405180830381858888f19350505050158015610463573d6000803e3d6000fd5b507ff17715ef19540cd5d39272c3efa67acccca56433dafd1671622021a4cfe6ca74476040516104939190610635565b60405180910390a150565b6000600460003373ffffffffffffffffffffffffffffffffffffffff1673ffffffffffffffffffffffffffffffffffffffff16815260200190815260200160002054905090565b6000813590506104f4816107bc565b92915050565b600081359050610509816107d3565b92915050565b60008135905061051e816107ea565b92915050565b60006020828403121561053a5761053961078e565b5b6000610548848285016104e5565b91505092915050565b6000602082840312156105675761056661078e565b5b6000610575848285016104fa565b91505092915050565b6000602082840312156105945761059361078e565b5b60006105a28482850161050f565b91505092915050565b6105b481610711565b82525050565b60006105c7601d83610650565b91506105d282610793565b602082019050919050565b6105e681610755565b82525050565b600060408201905061060160008301856105ab565b61060e60208301846105dd565b9392505050565b6000602082019050818103600083015261062e816105ba565b9050919050565b600060208201905061064a60008301846105dd565b92915050565b600082825260208201905092915050565b600061066c82610755565b915061067783610755565b9250827fffffffffffffffffffffffffffffffffffffffffffffffffffffffffffffffff038211156106ac576106ab61075f565b5b828201905092915050565b60006106c282610755565b91506106cd83610755565b9250817fffffffffffffffffffffffffffffffffffffffffffffffffffffffffffffffff04831182151516156107065761070561075f565b5b828202905092915050565b600061071c82610735565b9050919050565b600061072e82610735565b9050919050565b600073ffffffffffffffffffffffffffffffffffffffff82169050919050565b6000819050919050565b7f4e487b7100000000000000000000000000000000000000000000000000000000600052601160045260246000fd5b600080fd5b7f6e6f7420656e6f75676820746f2062757920746865206b65792873292e000000600082015250565b6107c581610711565b81146107d057600080fd5b50565b6107dc81610723565b81146107e757600080fd5b50565b6107f381610755565b81146107fe57600080fd5b5056fea26469706673582212203fec70b37a110745f7fdaf25eb4e89a3a6e179aa4dc9589831b5510e740e2a8964736f6c63430008050033",
  "immutableReferences": {},
  "source": "//SPDX-License-Identifier: MIT\n\npragma solidity ^0.8.4;\n\ncontract FomoOE {\n    address owner;\n    uint public balanceReceived;\n    uint public keyPrice = 100 wei;\n    uint public totalKeys;\n    mapping(address => uint) public keyBalance;\n    \n    event keysPurchased(address _by, uint _amount);\n    event contractBalance(uint _balanceReceived);\n    constructor() {\n        owner = msg.sender;\n    }\n\n    function receiveMoney() public payable {\n        balanceReceived += msg.value;\n        emit contractBalance(address(this).balance);\n    }\n    function getBalance() public view returns(uint) {\n        return address(this).balance;\n    }\n    function withdrawMoney() public {\n        address payable to = payable(msg.sender);\n        to.transfer(getBalance());\n        emit contractBalance(address(this).balance);\n    }\n    function withdrawMoneyTo(address payable _to) public {\n        _to.transfer(getBalance());\n    }\n\n    function purchaseKeys(uint _amount) public payable {\n        require(msg.value*_amount == keyPrice*_amount, \"not enough to buy the key(s).\");\n        keyBalance[msg.sender] += _amount;\n        // keyPrice = keyPrice + _amount;\n        emit keysPurchased(msg.sender, _amount);   \n    } \n    function getKeyBalance() public view returns(uint) {\n        return keyBalance[msg.sender];\n    }\n    \n    function getKeyPrice() public view returns(uint) {\n        return keyPrice;\n    }\n\n}",
  "sourcePath": "/Users/austin/Desktop/dapps/FomoOE/contracts/FomoOE.sol",
  "compiler": {
    "name": "solc",
    "version": "0.8.5+commit.a4f2e591.Emscripten.clang"
  },
  "schemaVersion": "3.4.2",
  "updatedAt": "2021-08-09T19:58:51.218Z",
  "networkType": "ethereum",
  "devdoc": {
    "kind": "dev",
    "methods": {},
    "version": 1
  },
  "userdoc": {
    "kind": "user",
    "methods": {},
    "version": 1
  }
}